:020000040800F2
:100000000096002065010008A11400087D14000876
:100010009D140008011000080F1D000800000000DA
:100020000000000000000000000000000F180008A1
:10003000C91000080000000035150008ED1900087F
:100040007F0100087F0100087F0100087F01000890
:100050007F0100087F0100087F0100087F01000880
:100060007F0100087F0100087F0100087F01000870
:100070007F0100087F0100087F0100087F01000860
:100080007F0100087F0100087F0100087F01000850
:100090007F0100087F0100087F0100087F01000840
:1000A0007F0100087F0100087F0100087F01000830
:1000B0007F0100087F0100087F0100087F01000820
:1000C0007F0100087F0100087F0100087F01000810
:1000D0007F010008511A0008851A00087F010008F6
:1000E0007F0100087F0100087F0100087F010008F0
:1000F0007F0100087F0100087F0100087F010008E0
:100100007F0100087F0100087F0100087F010008CF
:100110007F0100087F0100087F0100087F010008BF
:100120007F0100087F0100087F0100087F010008AF
:10013000DFF80CD000F0A0F8004800479123000839
:1001400000960020EFF30980704780F3098870471C
:10015000EFF30880704780F30888704740BA704713
:10016000C0BA70470648804706480047FEE7FEE7EA
:10017000FEE7FEE7FEE7FEE7FEE7FEE7FEE7FEE757
:10018000F11900083101000840EA01039B0703D080
:1001900009E008C9121F08C0042AFAD203E011F8C6
:1001A000013B00F8013B521EF9D27047D2B201E088
:1001B00000F8012B491EFBD270470022F6E710B56C
:1001C00013460A4604461946FFF7F0FF204610BDC5
:1001D00030B505462A460B4612F8010B13F8014BC1
:1001E00008B1A042F8D01CB1002802D06D1CF1E784
:1001F000284630BD421C10F8011B0029FBD1801A93
:100200007047034611F8012B00F8012B002AF9D1A1
:10021000184670472DE9F05F0546002092469B4640
:1002200088460646814640241BE02846414647460C
:10023000224600F042F853465A46C01A914110D364
:1002400011461846224600F029F82D1A67EB0108DE
:100250004F4622460120002100F020F817EB00094C
:100260004E41201EA4F10104DFDC484631462A46F7
:100270004346BDE8F09F0000064C074D06E0E068ED
:1002800040F0010394E8070098471034AC42F6D3DD
:10029000FFF752FFA0270008C0270008202A04DB30
:1002A000203A00FA02F1002070479140C2F1200389
:1002B00020FA03F3194390407047202A04DB203AC8
:1002C00021FA02F00021704721FA02F3D040C2F176
:1002D0002002914008431946704770B59AB0044611
:1002E00001A9204601F028FB2046FFF783FF4608BE
:1002F000314601A801F0CEFF05462146284602F00E
:10030000F6F81AB070BD000030B585B000F07AFE86
:1003100061A000F00BFE4FF47A7001F095FF4FF4EE
:100320007A7001F091FF00F06DFE5EA000F0FEFD1E
:100330004FF47A7001F088FF5C495DA001F0E2FDA6
:1003400000F060FE5EA000F0F1FD4FF4967001F049
:100350007BFF5FA000F0EAFD4FF4967001F074FFA0
:1003600000F050FE5EA000F0E1FD4FF4967001F049
:100370006BFF5EA14D48FFF72BFF0546ED1D0024E6
:1003800003E0285D0DF80400641C0F2CF9DB00204D
:100390008DF80F00694657A001F0B4FD4FF4967038
:1003A00001F052FF56A000F0C1FD4FF4967001F02D
:1003B0004BFF00F027FE55A000F0B8FD4FF4FA7097
:1003C00001F042FF394954A001F09CFD00F01AFEF3
:1003D0005FA000F0ABFD4FF4967001F035FF33499C
:1003E0005FA001F08FFD00F00DFE61A000F09EFD0A
:1003F0004FF4967001F028FF2C4960A001F082FDB7
:1004000000F000FE6AA000F091FD4FF47A7001F058
:100410001BFF26496FA001F075FD00F0F3FD72A0EF
:1004200000F084FD684600F081FD73A000F07EFDC1
:100430004FF47A7001F008FF4FF47A7001F004FF76
:100440001A496EA001F05EFD00F0DCFD6FA000F027
:100450006DFD4FF47A7001F0F7FE6CA000F066FDC0
:100460004FF47A7001F0F0FE00F0CCFD6EA000F0C9
:100470005DFD4FF47A7001F0E7FE0C496EA001F0CB
:1004800041FD00F0BFFD70A000F050FD4FF47A7008
:1004900001F0DAFE05B030BD41542B515253543DAA
:1004A000310D0A0041540D0A0000000054000020E4
:1004B000CAE4C8EB4154BAF3B7B5BBD825730A00F8
:1004C00041542B5153434C4B3D310D0A0000000069
:1004D00041542B4350534D533D300D0A0000000052
:1004E00041542B4347534E3D310D0A002B43475394
:1004F0004E3A0000494D4549BAC5CAC725730A009E
:1005000041542A4D49434349440D0A0041542B4369
:100510004553510D0A000000B5B1C7B0CDF8C2E790
:10052000D7B4CCAC25730AB5DACEE5CFEECEAA723D
:100530007372712CB7B6CEA7302D33342CCAFDD6CA
:10054000B5D4BDB8DFD0C5BAC5D4BDBAC30A0000A2
:1005500041542B434750414444523D310D0A000061
:10056000B5B1C7B04950B5D8D6B7CEAA25730A00E1
:1005700041542B43474154543F0D0A00B5B1C7B015
:10058000CDF8C2E7B8BDD7C5D7B4CCAC25730A3116
:10059000B1EDCABEB8BDD7C5B3C9B9A6A3AC30B119
:1005A000EDCABECEB4B8BDD7C5B3C9B9A60A00005E
:1005B00041542B514C57534552563D223138302E21
:1005C0003130312E3134372E313135222C35363819
:1005D000330D0A00C1ACBDD3B5E7D0C5D4C6D7B47E
:1005E000CCAC25730A00000041542B514C57434FAB
:1005F0004E463D2200000000220D0A00C6BDCCA8D8
:10060000D7A2B2E1C7E9BFF625730A0041542B51C6
:100610004C574144444F424A3D31392C302C312C07
:100620002230220D0A00000041542B514C574F50EC
:10063000454E3D300D0A0000C6BDCCA8C9CFCFDF66
:10064000C7E9BFF625730A0041542B514C57434666
:10065000473D2264617461666F726D6174222C3152
:100660002C310D0A000000002DE9F04F9FB000274B
:100670000024002003900290F64800681E901E9807
:1006800001F0CEFE8046F4480268F2480168F3A00B
:1006900001F038FC00F0B6FC0020F549086000BF0E
:1006A000CCE1F4A105A8FFF7ACFD4FEAE47E04EB32
:1006B0001E7E4FEA2E1B4FEAEB7E0BEB1E7E4FEAAF
:1006C0002E1A4FEAEA7E0AEB1E7E4FEA2E1E019496
:1006D000BEF1090F15DC20464FEAE47E04EB1E7ED6
:1006E0004FEA2E134FEAE37E03EB1E7E4FEA2E11F4
:1006F0004FEAE17E01EB1E7E4FEA2E1E0EF1300E18
:1007000014E0A1464FEAE47E04EB1E7E4FEA2E126F
:100710004FEAE27E02EB1E7E4FEA2E1C4FEAEC7E91
:100720000CEB1E7E4FEA2E1E0EF1370E0EF0FF0E62
:100730008DF844E04FEAE47E04EB1E7E4FEA2E1B68
:100740004FEAEB7E0BEB1E7E4FEA2E1A4FEAEA7E53
:100750000AEB1E7E4FEA2E1EAAEB0E1E0194BEF17E
:10076000090F17DCA1464FEAE47E04EB1E7E4FEA38
:100770002E1C4FEAEC7E0CEB1E7E4FEA2E114FEA48
:10078000E17E01EB1E7E4FEA2E1EA1EB0E1E0EF146
:10079000300E16E023464FEAE47E04EB1E7E4FEA5D
:1007A0002E124FEAE27E02EB1E7E4FEA2E104FEA37
:1007B000E07E00EB1E7E4FEA2E1EA0EB0E1E0EF119
:1007C000370E0EF0FF0E8DF845E0A1464FEAE47AB1
:1007D00004EB1A7A4FEA2A1C4FEAEC7A0CEB1A7AED
:1007E0004FEA2A1AACEB0A1ABAF1090F11DC2346B8
:1007F0004FEAE47A04EB1A7A4FEA2A114FEAE17AD7
:1008000001EB1A7A4FEA2A1AA1EB0A1A0AF1300A06
:1008100010E022464FEAE47A04EB1A7A4FEA2A10F3
:100820004FEAE07A00EB1A7A4FEA2A1AA0EB0A1A8A
:100830000AF1370A0AF0FF0A8DF846A02246E317AC
:1008400004EB13731B11A4EB0313092B08DC2146E3
:10085000E31704EB13731B11A4EB0313303307E00E
:100860002046E31704EB13731B11A4EB0313373378
:10087000DBB28DF847308D4800788DF827008B4823
:1008800040788DF82B00894880788DF82D009DF8F0
:10089000470000909DF846309DF845209DF8441093
:1008A00083A001F02FFB05A8FFF717FD00F0AAFBBE
:1008B00085A000F03BFB05A800F038FB89A000F004
:1008C00035FB05A98AA001F01DFB8FA19148FFF718
:1008D0007FFC064614E08CA18E48FFF779FC0646A3
:1008E0004FF47A7001F0B0FC4FF47A7001F0ACFC78
:1008F0004FF47A7001F0A8FC4FF47A7001F0A4FC78
:10090000002EE8D04FF47A7001F09EFC4FF47A701C
:1009100001F09AFC80A13046FFF75AFC0646307B76
:100920008DF81000707B8DF81100B07B8DF81200EF
:10093000F07B8DF813000027002513E004A8405D2C
:10094000392805DC04A8405D303804A9485504E086
:1009500004A8405D373804A9485504A8405D00EB61
:1009600007176D1C042DE9DBFF1E39466CA001F052
:10097000C9FA163631466FA001F0C4FA00252EE000
:1009800016F81500392805DC16F81500303806F879
:10099000150004E016F81500373806F81500680051
:1009A000401C305C392808DC6800401C305C303862
:1009B000C1B26800401C315407E06800401C305C44
:1009C0003738C1B26800401C31546800401C305CAC
:1009D00016F8151000EB011008F805006D1C16F84C
:1009E00015000028CCD16800401C305C0028C7D11D
:1009F000691E56A001F086FABD4206DA0398401C33
:100A0000039058A001F07EFA641E0398022803DBCD
:100A10005AA001F077FA16E0002507E018F8052043
:100A20000298411C02915B490A546D1CBD42F5DBE2
:100A30000F48006838440E490860641C0648006886
:100A40008442FFF42EAE404601F046FC1FB0BDE8E4
:100A5000F08F00003000002034000020B0FCB4F320
:100A6000D0A125642CCAFDC1BF25640A0000000086
:100A70003800002046464645303131353030303080
:100A80003030313235363330324533303330303038
:100A90003030303030303030303030303030303056
:100AA0003030303030303030000000003C0000206A
:100AB000B5DA2563256325632563B4CECFC2D4D8C8
:100AC000CAFDBEDD0000000041542B514C5744418B
:100AD000544153454E443D31392C302C302C323664
:100AE0002C0000002C3078303130300D0A0000002E
:100AF000C7EBC7F3CAFDBEDDB0FCB5C4636D64CA05
:100B0000C725730A00000000514C5744415441521C
:100B1000454356005400002046464645000000006C
:100B2000B8C3B0FCD3D0D0A7D7D6BDDACEAAA3BA6B
:100B300025640A00BDD3CAD5B5BDCDEAD5FBB5C481
:100B4000CAFDBEDDB0FCCAC725730A00BDD3CAD535
:100B5000B5BDD7D6B7FBCAFDC1BFCEAAA3BA25641F
:100B60000A000000CAFDBEDDB6AAB0FC2CD6D8D063
:100B7000C2C7EBC7F3D2BBB4CE0A0000CAFDBEDDCC
:100B8000B0FCD3D0CECACCE2A3ACC7EBC7F3B3ACB6
:100B9000CAB10A000010002070B5A0B000F032FA0F
:100BA0007DA000F0C3F94FF47A7001F04DFB4FF4D3
:100BB0007A7001F049FB4FF47A7001F045FB4FF475
:100BC0007A7001F041FB4FF47A7001F03DFB7BA19C
:100BD0007C48FFF7FDFA04467BA001F093F91CB9AD
:100BE0007DA001F08FF9D5E07FA001F08BF9754968
:100BF00080A001F087F980A17248FFF7E9FA044666
:100C000003A800F02DFC81A107A8FFF7FAFA9DF8D0
:100C10000C008DF831009DF80E008DF835009DF820
:100C20000F008DF8370007A8FFF757FB07A984A02E
:100C300001F068F907A8FFF7DDFAC0F347060A22BA
:100C400006A9304601F022FC00F0DCF906A97FA0DD
:100C500001F058F980A000F069F906A800F066F9E3
:100C600083A000F063F907A800F060F981A000F00C
:100C70005DF9544982A001F045F983A15148FFF77D
:100C8000A7FA044608E080A14E48FFF7A1FA0446FF
:100C90004FF47A7001F0D8FA002CF4D07EA14948C4
:100CA000FFF796FA044680A12046FFF791FA044622
:100CB00021467FA001F026F91734607E8DF80800E8
:100CC000A07E8DF80900E07E8DF80A00207F8DF867
:100CD0000B00607F8DF80400A07F8DF80500E07F99
:100CE0008DF8060094F820008DF8070014F8040C25
:100CF0007349087020784870A078173C88700846BF
:100D00008378427801786FA001F0FCF800252FE08D
:100D100002A8405D392805DC02A8405D303802A9F0
:100D2000485504E002A8405D373802A9485502A89A
:100D3000415D6B48006801EB00106949086001A83B
:100D4000405D392805DC01A8405D303801A94855CF
:100D500004E001A8405D373801A9485501A8415D6C
:100D60006048006801EB00105E490860681CC5B26D
:100D7000042DCDDB5B480268594801685AA001F098
:100D8000C1F800F03FF95CA000F0D0F84FF47A70A1
:100D900001F05AFA20B070BD41542B514C574441D8
:100DA000544153454E443D31392C302C302C312C9C
:100DB00033312C3078303130300D0A0053454E44F9
:100DC000204F4B0054000020BDF8C8EBB0E6B1BE88
:100DD000B2E9D1AF0A000000CDF8C2E7C1ACBDD383
:100DE000B2BBB3C9B9A60A00CDF8C2E7B3C9B9A668
:100DF0000A00000025730A0046464645303131336B
:100E0000344339413030303000000000464646451A
:100E100030313133303030303030313130303536C0
:100E2000333232453331333030303030303030309F
:100E30003030303030303030303030303030000012
:100E4000435243CAC725730A00000000D7D6B3A493
:100E5000CEAA25730A00000041542B514C5744413F
:100E6000544153454E443D31392C302C302C000038
:100E70002C0000002C3078303130300D0A0000009A
:100E80000A25730A00000000514C57444154415256
:100E90004543563A0000000031392C312C302C33B8
:100EA000302C4646464500004646464500000000B8
:100EB000D7D6B7FBB4AECEAAA3BA25730000000004
:100EC0003C000020D4C6B6CBB0E6B1BEBAC5CEAAAF
:100ED000563325632E3325633325630A0000000053
:100EE0003000002034000020B0FCB4F3D0A12578FD
:100EF0002CCAFDC1BF25780041542B514C574441A9
:100F0000544153454E443D31392C302C302C392C32
:100F1000464646453031313444373638303030314A
:100F200030302C3078303030300D0A0070B5044647
:100F300000250CE0615D084800F0E5FE00BF80215F
:100F4000054800F013FE0028F9D0681CC5B2605DAA
:100F50000028EFD170BD00000044004010B586B0FD
:100F600004460121042000F007FB0121480400F0A1
:100F7000E3FA0420ADF8140003208DF816001820C1
:100F80008DF8170005A91C4800F0DEF90820ADF81F
:100F9000140004208DF8170005A9174800F0D4F9B3
:100FA00026208DF8000000208DF801008DF8020049
:100FB00001208DF80300684600F07AFA01940020C1
:100FC000ADF80800ADF80A00ADF80C00ADF810005F
:100FD0000C20ADF80E0001A9084800F023FE012204
:100FE00040F22551054800F0F8FD0121034800F0CA
:100FF00063FD06B010BD0000000801400044004041
:1010000000BFFEE710B540F2DC510348FFF7D5F80A
:1010100000200249086010BD540000202800002074
:1010200010B564210348FFF7C8F8002002490860A2
:1010300010BD0000300600204400002010B5002242
:1010400040F22551194800F0C8FD002240F2255118
:10105000174800F0C2FD002240F22551154800F06B
:10106000BCFD0021114800F027FD0021114800F0CF
:1010700023FD00210E4800F01FFD0C4800F028FD64
:101080000B4800F025FD0B4800F022FD0A4800F057
:10109000F7F80A4800F0F4F8094800F0F1F80948B8
:1010A00000F0EEF800F088FA10BD000000380140B2
:1010B000004400400048004000080140000C01408E
:1010C00000100140001401407047000010B586B0C8
:1010D0000446012144F2040000F04EFA4FF400707F
:1010E000ADF8140003208DF8160018208DF81700B5
:1010F00005A91C4800F028F94FF48060ADF81400F1
:1011000004208DF8170005A9164800F01DF92520C8
:101110008DF8000003208DF801008DF802000120F9
:101120008DF80300684600F0C3F901940020ADF883
:101130000800ADF80A00ADF80C00ADF810000C2066
:10114000ADF80E0001A9084800F06CFD012240F244
:101150002551054800F041FD0121034800F0ACFC99
:1011600006B010BD000801400038014030B504460B
:1011700004254FF4302000F06FF80546042D17D1F8
:101180000C48006940F002000A49086108464461C1
:10119000006940F0400008614FF4302000F05CF836
:1011A00005460448006941F6FD710840014908619F
:1011B000284630BD0020024004200B49C96801F0D8
:1011C000010109B101200EE00749C96801F00401DD
:1011D00009B1022007E00449C96801F0100109B112
:1011E000032000E00420704700200240034800690B
:1011F00040F0800001490861704700000020024073
:1012000070B504460D460426F00200F025F80646A7
:10121000042E11D10948006940F001000749086116
:101220002580F00200F018F806460448006941F6EF
:10123000FE71084001490861304670BD002002403F
:1012400002480349486003484860704723016745E6
:1012500000200240AB89EFCD00B502460423FFF722
:10126000ABFF034603E0FFF7A7FF0346521E012B27
:1012700001D1002AF7D102B90523184600BD0000AC
:1012800010B504462948844208D10121042000F009
:1012900083F90021042000F07FF946E024488442CD
:1012A00008D10121082000F077F90021082000F082
:1012B00073F93AE01F48844208D10121102000F060
:1012C0006BF90021102000F067F92EE01A488442E3
:1012D00008D10121202000F05FF90021202000F03A
:1012E0005BF922E01548844208D10121402000F03A
:1012F00053F90021402000F04FF916E010488442D5
:1013000008D10121802000F047F90021802000F061
:1013100043F90AE00B48844207D10121801500F00F
:101320003BF90021A01500F037F910BD000801407D
:10133000000C014000100140001401400018014061
:10134000001C0140002001402DE9F041024600252B
:101350000026002000230024002791F803C00CF091
:101360000F0591F803C00CF0100CBCF1000F03D076
:1013700091F802C04CEA050591F800C0BCF1000FDD
:1013800031D0146800202BE04FF0010C0CFA00F370
:10139000B1F800C00CEA03069E4220D183004FF052
:1013A0000F0C0CFA03F7BC4305FA03FC4CEA0404E7
:1013B00091F803C0BCF1280F06D14FF0010C0CFAD4
:1013C00000FCC2F814C00AE091F803C0BCF1480F59
:1013D00005D14FF0010C0CFA00FCC2F810C0401C03
:1013E0000828D1D31460B1F800C0BCF1FF0F34DD80
:1013F000546800202EE000F1080C4FF0010808FAB4
:101400000CF3B1F800C00CEA03069E4221D1830020
:101410004FF00F0C0CFA03F7BC4305FA03FC4CEA3F
:10142000040491F803C0BCF1280F05D100F1080CA9
:1014300008FA0CF8C2F8148091F803C0BCF1480F08
:1014400007D100F1080C4FF0010808FA0CF8C2F8B7
:101450001080401C0828CED35460BDE8F081000005
:1014600001460022044A002002E013580B54401C9D
:101470000428FADB704700000090000800BFFEE778
:101480002DE9F0410446FFF7D9FD2668656830462E
:10149000FEF761FE2F46B847BDE8F08100BFFEE7CA
:1014A000704710B54FF4A06000F03AF810BD00008E
:1014B00070B5002100230F22C47804B3154C2468B2
:1014C00004F4E064C4F5E064210AC1F10403CA40F5
:1014D000447804FA03F184781440214309010E4C46
:1014E0000678A155047804F01F050124AC40057866
:1014F0006D11AD0005F1E025C5F8004109E0047863
:1015000004F01F050124AC40044D0678761145F81F
:10151000264070BD0CED00E000E400E080E100E05A
:1015200002490143024A1160704700000000FA05B9
:101530000CED00E07047000029B1064AD269024371
:10154000044BDA6104E0034AD2698243014BDA6159
:10155000704700000010024029B1064A1269024398
:10156000044B1A6104E0034A12698243014B1A6179
:10157000704700000010024029B1064A92690243F8
:10158000044B9A6104E0034A92698243014B9A61D9
:10159000704700000010024029B1064AD268024399
:1015A000044BDA6004E0034AD2688243014BDA60FC
:1015B00070470000001002400F48006840F0010032
:1015C0000D490860084640680C4908400A494860CF
:1015D000084600680A49084007490860084600684C
:1015E00020F4802008600846406820F4FE0048602F
:1015F0004FF41F0088607047001002400000FFF8A1
:10160000FFFFF6FE30B500210022002400232D4DFF
:101610006D6805F00C0121B1042905D0082923D1FA
:1016200005E0294D056022E0274D05601FE0254DAE
:101630006D6805F47012234D6D6805F48034022541
:1016400005EB92421CB9214D554305600BE01D4D41
:101650006D6805F400351DB11C4D5543056002E071
:10166000194D5543056002E0174D056000BF00BFEE
:10167000144D6D6805F0F0010909154D6B5C0568A6
:10168000DD4045600F4D6D6805F4E061090A104DBD
:101690006B5C4568DD4085600A4D6D6805F46051FE
:1016A000C90A0B4D6B5C4568DD40C560054D6D6832
:1016B00005F44041890B074D6B5CC568B5FBF3F53C
:1016C000056130BD0010024000127A0000093D00A3
:1016D000000000201000002030B503460C461546DF
:1016E000002207E0184600F008F824F812009B1CBE
:1016F000501C82B2AA42F5DB30BD01460888704713
:101700002DE9F05F80468A461746B8F1006F02D394
:101710003348804501D3BDE8F09FFFF791FDA8F164
:10172000006B4FEADB25CBF34909C9F58064A7427A
:1017300000DC3C464DE04FF0006101EBC5204A144F
:101740002849FFF7C9FF00260BE009EB06002549F1
:1017500031F810004FF6FF71884200D003E0701C92
:1017600086B2A642F1DB00BFA6421BDA4FF0006151
:1017700001EBC520FFF7FAFC002608E03AF8160056
:1017800006EB0901174A22F81100701C86B2A64226
:10179000F4DB4FF0006101EBC5204A14114900F061
:1017A00023F804E022465146404600F01DF8A742C7
:1017B00000D10FE06D1C4FF000090AEB440AA04471
:1017C000381B87B2B7F5806F02DD4FF4806400E00C
:1017D0003C46B0E700BFFFF709FD00BF9BE70000F4
:1017E00000000808008800202DE9F04105460E465B
:1017F0001746002407E036F814102846FFF700FDCE
:10180000AD1C601C84B2BC42F5DBBDE8F0817047C2
:1018100010B500F001F810BD0CB50020019000904B
:101820003348006840F480303149086000BF3048D8
:10183000006800F4003000900198401C019000986E
:1018400018B90198B0F5A06FF1D12948006800F4EB
:10185000003010B10120009001E0002000900098BD
:10186000012843D12348006840F010002149086056
:101870000846006820F0030008600846006840F051
:10188000020008601A4840681949486008464068E4
:1018900048600846406840F48060486008464068F8
:1018A00020F47C1048600846406840F4E810486026
:1018B0000846006840F08070086000BF0C4800686F
:1018C00000F000700028F9D00948406820F00300BB
:1018D000074948600846406840F00200486000BF81
:1018E0000348406800F00C000828F9D10CBD000046
:1018F000001002400020024070B5054600260D4E43
:10190000FFF79EFC3046FFF731FC00240DE015F890
:101910001420012303EB4403EB5C02EB032291B29E
:1019200006EB4400FFF76CFC641C022CEFDBFFF7B6
:101930005DFC70BD0090000870B5024600231046A3
:101940003CE00678302E05DB0678392E02DC06787E
:10195000303EF4B20678412E05DB0678462E02DCD6
:101960000678373EF4B20678612E05DB0678662EDF
:1019700002DC0678573EF4B2401C0678302E05DBB8
:101980000678392E02DC0678303EF5B20678412E14
:1019900005DB0678462E02DC0678373EF5B206787F
:1019A000612E05DB0678662E02DC0678573EF5B21E
:1019B000401C05EB0416CE545E1CF3B20678002ED4
:1019C000BFD170BD042808D14FF0E021096941F072
:1019D00004014FF0E022116107E04FF0E0210969B6
:1019E00021F004014FF0E0221161704770470000C0
:1019F00010B51348006840F001001149086008461E
:101A00004068104908400E494860084600680E4981
:101A100008400B4908600846006820F480200860F0
:101A20000846406820F4FE0048604FF41F008860BC
:101A3000FFF7EEFE4FF000600449086010BD0000A3
:101A4000001002400000FFF8FFFFF6FE08ED00E086
:101A500010B540F22551084800F095F858B10648F5
:101A600000F04CF9C1B2054802680068401C034B05
:101A700018600348815410BD003801404400002024
:101A80003006002010B540F22551084800F07BF8E0
:101A900058B1064800F032F9C1B205480268006842
:101AA000401C034B18600348815410BD00440040A3
:101AB000280000205400002021B1828942F4005205
:101AC000828104E082894DF6FF731A40828170475B
:101AD00010B504462048844209D101218803FFF74C
:101AE0005BFD00214FF48040FFF756FD32E01B48BC
:101AF000844209D101214804FFF72EFD00214FF453
:101B00000030FFF729FD25E01548844209D1012165
:101B10008804FFF721FD00214FF48020FFF71CFD12
:101B200018E01048844209D10121C804FFF714FDD0
:101B300000214FF40020FFF70FFD0BE00A4884421C
:101B400008D101210805FFF707FD00214FF480109F
:101B5000FFF702FD10BD00000038014000440040C6
:101B600000480040004C0040005000400246002069
:101B7000B1F5007F00D100BF13880B400BB10120ED
:101B800000E00020704770B50246002400230025C5
:101B9000002040F66A16B14200D100BFC1F34215E1
:101BA00001F01F03012606FA03F3012D02D19689E5
:101BB000334006E0022D02D1168A334001E0968AB6
:101BC00033400C12012606FA04F41688344013B18F
:101BD0000CB1012000E0002070BDF0B503460024E8
:101BE00000260025002040F66A17B94200D100BF48
:101BF0001846C1F3421401F01F06012707FA06F543
:101C0000012C01D10C3004E0022C01D1103000E095
:101C100014301AB107682F43076002E00768AF432A
:101C20000760F0BD2DE9F04786B005460E4600245A
:101C3000A24600BFA1460027B08900B100BF2F46D1
:101C40002C8A4CF6FF700440F08804432C82AC8947
:101C50004EF6F3100440B088318908437189084377
:101C60000443AC81AC8A4FF6FF400440B089044382
:101C7000AC8201A8FFF7C6FC1F48874202D1DDF8FD
:101C800010A001E0DDF80CA0A88900F4004040B1EC
:101C90000AEBCA0000EB0A1031684900B0FBF1F80A
:101CA00007E00AEBCA0000EB0A1031688900B0FBBC
:101CB000F1F86420B8FBF0F004012009642101FB75
:101CC0001089A88900F4004040B1322000EBC9001F
:101CD000B0FBF1F000F00700044308E0322000EB15
:101CE00009106421B0FBF1F000F00F0004432C81D7
:101CF00006B0BDE8F0870000003801400146888842
:101D0000C0F308007047C1F308028280704700BF2B
:101D1000FEE7000010B59CB0FFF774F94FF47A703D
:101D200000F092FA38A0FFF701F94FF47A7000F052
:101D30008BFA4FF47A7000F087FA4FF47A7000F063
:101D400083FA3EA0FFF7F2F872B6494849490268A3
:101D5000494800F0E9FA642000F076FA62B647A13B
:101D600003A8FEF74EFA524800788DF8210050483B
:101D700040788DF825004E4880788DF8270003A81C
:101D8000FEF7ABFA03A94BA000F0BCF803A8FEF7DE
:101D900031FAC0F347040A2202A9204600F076FB7C
:101DA000FFF730F902A946A000F0ACF847A0FFF712
:101DB000BDF802A8FFF7BAF84AA0FFF7B7F803A8E2
:101DC000FFF7B4F848A0FFF7B1F8394800788DF86C
:101DD00004002E208DF80500354840788DF8060067
:101DE000334880788DF8070001A8FFF785FD01A82A
:101DF000FFF736FB01A93FA000F084F81E48FFF76B
:101E00003FFB1CB010BD000041542B514C574441C6
:101E1000544153454E443D31392C302C302C392C13
:101E20004646464530313136383530453030303130
:101E300030302C3078303030300D0A0041542B5186
:101E40004C574441544153454E443D31392C302C7C
:101E5000302C392C46464645303131374237323501
:101E60003030303130302C3078303030300D0A00A6
:101E700038000020001000200000010846464645BA
:101E8000303131383030303030303131303035363B
:101E90003330324533303330303030303030303022
:101EA0003030303030303030303030303030000092
:101EB0003C000020435243CAC725730A00000000BB
:101EC000D7D6B3A4CEAA25730A00000041542B51E3
:101ED0004C574441544153454E443D31392C302CEC
:101EE000302C00002C0000002C3078303130300DC8
:101EF0000A000000D7EED0C2B0E6B1BECAC7257353
:101F00000A0000000FB4054B10B503A9044A02985B
:101F100000F018F810BC5DF814FB0000BD220008AA
:101F20004800002002E008C8121F08C1002AFAD1A8
:101F300070477047002001E001C1121F002AFBD149
:101F4000704700002DE9FF4F8DB09B460F460446B9
:101F5000002606E025280BD05A460F999047641CAE
:101F6000761C20780028F5D111B03046BDE8F08FFE
:101F70000025A8460122984900E0054314F8013FD6
:101F8000203B02FA03F00842F7D120782E2817D11F
:101F900014F8010F45F004052A280ED06FF02F0227
:101FA0002078A0F1300109290AD808EB880102EB5A
:101FB000410100EB0108641CF2E757F8048B641C34
:101FC00020786C280DD004DC4C2812D06A2811D15E
:101FD00004E074280DD07A280CD10AE045F40015ED
:101FE00007E0617845F48015814202D1641C05F553
:101FF0008015641C2278692A45D008DC002AB3D0F9
:10200000582A69D0632A10D0642A08D13BE0702A8C
:1020100067D0732A13D0752A5CD0782A5CD010461A
:102020005A460F999047761CD3E017F8040B8DF8A9
:10203000000000208DF80100E946012003E057F878
:10204000049B4FF0FF3069074FF0000501D40AE010
:102050006D1C45450DDA8542FADB19F8051000299B
:10206000F6D106E06D1C8542FCDB19F8051000294D
:10207000F8D12E4404E019F8010B5A460F99904705
:102080006D1EF8D2A5E00A200021CDE90801C5F3B4
:10209000025002280DD001CFC117031E71F10003B9
:1020A0000DDA4FF0000CD0EB0C006CEB01012D238E
:1020B00008E0FF1D27F00707F7E80201EDE72B0511
:1020C00004D52B238DF8283001233BE0EB0739D0D2
:1020D0002023F7E70A2000E010200021CDE90801C5
:1020E00007E01020002145F00405CDE908014FF07C
:1020F0000808C5F3025002280FD001CF00214FF08D
:10210000000A2B071FD5702A0DD0DDE908C38CF01B
:10211000100C5CEA030C0CD015E0FF1D27F007073C
:10212000F7E80201EBE740228DF828204FF0010A82
:102130000BE050EA010306D030238DF828308DF8EB
:10214000292002239A46582A04D024A20DF12009FE
:102150000B9209E026A2F9E7DDE90823FEF75AF819
:102160000B9B9B5C09F8013D50EA0102F4D1ADEBF9
:10217000090020300890680701D44FF00108089941
:10218000884502DDA8EB010000E000208046002524
:1021900006E00AA85A46405D0F9990476D1C761CD0
:1021A0005545F6DB04E030205A460F999047761CDF
:1021B000B8F10001A8F10108F5DC05E019F8010B00
:1021C0005A460F999047761C0899481E0890002996
:1021D000F4DC641CC5E6000009280100303132330C
:1021E0003435363738396162636465660000000053
:1021F000303132333435363738394142434445463D
:102200000000000010B56FF00400FFF7DBFB0A4888
:1022100000680A49B0FBF1F00949087008460078E7
:1022200000EB4001C1EBC0104FF6FF7101EAC000A6
:102230000449088010BD00001400002000127A003C
:1022400040000020420000200146114A12884A4303
:102250004FF0E0235A6100229A611A46126942F057
:1022600001021A6100BF4FF0E022106900F0010284
:102270001AB100F48032002AF5D04FF0E022126942
:1022800022F001024FF0E0231A6100229A617047A8
:102290004200002030B502460020002309E012F879
:1022A000014B4440E4B2044D35F8144084EA202048
:1022B0005B1C8B42F3DB30BDA025000800BF054A44
:1022C000128802F04002002AF9D0C2B2014B1B1D55
:1022D0001A8070470038014010B5002821D0114BFA
:1022E0000022001F196803E0814203D80A464968AA
:1022F0000029F9D152B11368841A9C4204D10068B4
:1023000018441060104602E0506000E0186039B1D7
:1023100002680B1A934203D10B681A4402604968A1
:10232000416010BD4C0000202DE9F05F06460F46CD
:1023300090460024B3463D46A1461CE068784FEA2B
:10234000002A287850441FFA80FAAD1C2046611CF0
:102350008CB20E4921F810A0B4F5806F07D100248B
:102360004FF480625846FFF7CBF90BF5006B09F18B
:1023700002001FFA80F9C145E0D324B12246034987
:102380005846FFF7BDF9BDE8F09F00009406002015
:102390009AB06422184901A8FDF7F6FEFFF732FF54
:1023A000FFF77FF84FF4E130FEF790FE4FF4E13095
:1023B000FEF7D4FD11A0FFF7A5FD6420FFF744FF51
:1023C000FEF72EFEFEF71EFE0EA0FEF7AFFD642008
:1023D000FFF73AFF0D490EA0FFF794FDFDF794FFBC
:1023E0000DA0FFF789FAFEF7D7FBFEF73DF9FFF7DF
:1023F00091FC00BFFEE700003C250008BFAACABC54
:102400000A00000041540D0A0000000054000020A2
:10241000B7B5BBD825730A00322E3130000000005A
:10242000F0B50B30154D20F007010024144A0FE0E1
:1024300003688B420BD38B4205D95E1A4318476859
:10244000C3E9006700E04368136002C004E0021DB6
:1024500010680028ECD12046002802D1286808B175
:102460000020F0BD064A07481060074A121A22F001
:102470000702C0E9002401202860D7E750000020AF
:102480004C0000200490002000920020F0B503468C
:102490000D461646002729460A2E03D00020087054
:1024A0002846F0BD33B9302001F8010B0020087038
:1024B0002846F6E7002B03DA2D2001F8010B5B42DA
:1024C00042F210720DE093FBF2F404B937B104F15B
:1024D000300001F8010B04FB123301270A2092FBA4
:1024E000F0F2002AEFDC002008702846D9E718B582
:1024F0000246002000BF1DE0C0F103039B0042FA2A
:1025000003F303F00F030DF800301DF800300A2B21
:1025100007DA1DF800303033DCB200F10803CC5488
:1025200006E01DF800303733DCB200F10803CC546C
:10253000431CD8B20428DFDB18BD000046464645E0
:102540003031313330303030303031313030353679
:102550003332324533313330303030303030303058
:1025600030303030303030303030303030300000CB
:10257000000000000000000000000000000000005B
:10258000000000000000000000000000000000004B
:10259000000000000000000000000000000000003B
:1025A00000002110422063308440A550C660E770CF
:1025B000088129914AA16BB18CC1ADD1CEE1EFF177
:1025C0003112100273325222B5529442F772D6621F
:1025D000399318837BB35AA3BDD39CC3FFF3DEE3C7
:1025E0006224433420040114E664C774A44485546F
:1025F0006AA54BB528850995EEE5CFF5ACC58DD517
:102600005336722611163006D776F6669556B446BE
:102610005BB77AA719973887DFF7FEE79DD7BCC766
:10262000C448E5588668A77840086118022823380E
:10263000CCC9EDD98EE9AFF9488969990AA92BB9B6
:10264000F55AD44AB77A966A711A500A333A122A5E
:10265000FDDBDCCBBFFB9EEB799B588B3BBB1AAB06
:10266000A66C877CE44CC55C222C033C600C411CAE
:10267000AEED8FFDECCDCDDD2AAD0BBD688D499D56
:10268000977EB66ED55EF44E133E322E511E700EFE
:102690009FFFBEEFDDDFFCCF1BBF3AAF599F788FA6
:1026A0008891A981CAB1EBA10CD12DC14EF16FE186
:1026B0008010A100C230E3200450254046706760BE
:1026C000B9839893FBA3DAB33DC31CD37FE35EF3D6
:1026D000B1029012F322D23235421452776256720E
:1026E000EAB5CBA5A89589856EF54FE52CD50DC526
:1026F000E234C324A014810466744764245405445E
:10270000DBA7FAB79987B8975FE77EF71DC73CD775
:10271000D326F2369106B0165766767615463456AD
:102720004CD96DC90EF92FE9C899E9898AB9ABA9C5
:102730004458654806782768C018E1088238A328FD
:102740007DCB5CDB3FEB1EFBF98BD89BBBAB9ABB15
:10275000754A545A376A167AF10AD01AB32A923A4D
:102760002EFD0FED6CDD4DCDAABD8BADE89DC98D65
:10277000267C076C645C454CA23C832CE01CC10C9D
:102780001FEF3EFF5DCF7CDF9BAFBABFD98FF89FB5
:10279000176E367E554E745E932EB23ED10EF01EED
:1027A000C02700080000002054000000241F00087B
:1027B0001428000854000020AC950000341F0008C5
:1027C00000000000010203040102030406070809D7
:1027D0000204060800A24A040000000000000000F5
:1027E00001020304060708090000000000000000C1
:1027F00000000000000000000000000000000000D9
:1028000000000000000000000000000000000000C8
:0428100000000000C4
:0400000508000131BD
:00000001FF
